:1000000018308A0000280000FF00030E8301A100C1
:100010000A08A0008A010408A2007708A300780853
:10002000A4007908A5007A08A60003170D08031399
:10003000A70003170F080313A80003170C080313E6
:10004000A90003170E080313AA00831383128B1E43
:100050002B280B195C280B1E2F288B185F288C303F
:100060008400801E35288C1A62288C308400001C85
:100070003B280C186528220884002308F700240870
:10008000F8002508F9002608FA00270803178D0054
:100090000313280803178F000313290803178C0084
:1000A00003132A0803178E00031320088A00210E69
:1000B0008300FF0E7F0E09008A110A12F22A8A11AC
:1000C0000A12972A8A110A12E6288A110A121C2B90
:1000D00083186D28A830840083178316031723081C
:1000E00027068039AD00A31F8028A009A109A20915
:1000F000A309A00A0319A10A0319A20A0319A30A52
:10010000A71F8D28A409A509A609A709A40A0319F0
:10011000A50A0319A60A0319A70AF701F801F901AC
:10012000FA01A801A901AA01AB01270826042504A8
:1001300024040319CB282030AC000310A00DA10D1E
:10014000A20DA30DA80DA90DAA0DAB0D27082B021A
:10015000031DB42826082A02031DB42825082902F5
:10016000031DB42824082802031CC5282408A8025B
:100170002508031C250FA9022608031C260FAA0226
:100180002708031C270FAB020314F70DF80DF90D18
:10019000FA0DAC0B9D28AD1FD828F709F809F9090D
:1001A000FA09F70A0319F80A0319F90A0319FA0AEE
:1001B00028088000840A29088000840A2A08800010
:1001C000840A2B08800083120313080069307D071E
:1001D000840083138C1EEA281A088000FD0A7D081B
:1001E000083C031D6C2AFD016908DD3A03190B293F
:1001F000033A03191729133A03191F29123A03194D
:100200002729033A03194E2A063A03195A2A013AB2
:100210000319622A6A2A6A08CE006B08CD006C08AE
:10022000CC006D08CB0001308316E6006B2A02304B
:100230008316E6008312E601E50183166B2A6C083B
:10024000D8006D08D70003308316E6006B2A6A08D1
:10025000D2006B08D1006C08D0006D08CF0083106D
:10026000520883160317A300831203135108831641
:100270000317A20083120313500883160317A1006B
:10028000831203134F0883160317A000A701A601CA
:100290000130A500F430A40083120313682077080E
:1002A0008316EB0083149030840083178312520866
:1002B00083160317A3008312031351088316031731
:1002C000A20083120313500883160317A1008312A0
:1002D00003134F0883160317A000A701A6010130DE
:1002E000A500F430A40083120313682083160317BB
:1002F0001308970012089600110895001008940042
:100300009901040898001910831B1914831013080D
:10031000A3001208A2001108A1001008A000A70164
:10032000A601A5016430A40083120313682083167C
:100330000317180884008313191883177708031309
:10034000EA008314903084008317831252088316C6
:100350000317A30083120313510883160317A20087
:1003600083120313500883160317A100831203138B
:100370004F0883160317A000A701A6010130A500AE
:10038000F430A400831203136820831603171308A4
:100390009700120896001108950010089400990122
:1003A000040898001910831B191483149A308400D0
:1003B00083171308A3001208A2001108A100100857
:1003C000A000A701A601A5016430A40083120313B5
:1003D0006820831603171A08F7001B08F8001C088A
:1003E000F9001D08FA0018088400831319188317F0
:1003F0001D0897001C0896001B0895001A08940019
:100400009F0104089E001F10831B1F1483101D08EA
:10041000A3001C08A2001B08A1001A08A000A70145
:10042000A601A50103136C080317A400831203138C
:100430006820831603171E08840083131F18831770
:1004400077080313E9008314903084008317831224
:10045000520883160317A30083120313510883164F
:100460000317A20083120313500883160317A10079
:10047000831203134F0883160317A000A701A601D8
:10048000A50103136C080317A4008312031368204B
:100490008316031710080313E8006B2A6A08BC00D0
:1004A0006B08BB006C08BE006D08BD0004308316ED
:1004B000E6006B2A6C08D8006D08D700033083165D
:1004C000E6006B2AAC0A2C08023C031CAC01831624
:1004D0006B2A8312831683128C128A110A123B280C
:1004E000F701F80103176B0803106C18F707F70CF6
:1004F000F80CEC18F707F70CF80C6C19F707F70C69
:10050000F80CEC19F707F70CF80C6C1AF707F70C56
:10051000F80CEC1AF707F70CF80C6C1BF707F70C44
:10052000F80CEC1BF707F70CF80C03130800831604
:10053000E715E71683120B12AF0183166719A32A7A
:10054000831286128316671DA82A831286168316C5
:10055000E80A6719AE2A831286138316671DB32A29
:1005600083128617831668086C020318C42AE801F0
:10057000E90AE718BE2A831206138316E71CC32A6A
:10058000831206178316CE2A6719C92A8312061307
:100590008316671DCE2A83120617831669088312F5
:1005A0000317EB00831603136C0883120317EC0088
:1005B000031370227808633C0318E22A8316EA0AC0
:1005C000E901831283166A08043C0318E92AEB0A3E
:1005D000EA016B08143C0319EB0183128B108A119A
:1005E0000A123B28FF30810083166719FA2A83120A
:1005F00087108316671DFF2A8312871483168312C0
:10060000071A042B0310052B0314F10DF20DF30D43
:10061000F40DF50DF60D8316E718112B83128710D4
:100620008316E71C162B831287148316E50A8312A0
:100630000B118A110A123B288E010B308F00DB3020
:100640008E000000FB0AE50A0319E60AAF0AB00AA9
:100650007B08043C0318F52BDE010B30DD00DD08C0
:10066000031D352BDE080319752B03105D0DF900F2
:100670005E0DFA007908103EF800013003180230D0
:10068000FA0778080317EB007A08EC00013003132F
:100690005D020317ED0003135E080317EE00003040
:1006A000031C0130EE0203106D0DF9006E0DFA000F
:1006B0007908103E84008317840A0008FA00840336
:1006C0000008ED007A08EE006B08840083136C18B4
:1006D0008317840A6E08800084036D08800003136A
:1006E0005D080319DE03DD032F2B470843020317C0
:1006F000EB00031344080317EC0003134808031C22
:10070000480F832B862B0317EC02031345080317AE
:10071000ED0003134908031C490F8F2B922B03177D
:10072000ED02031346080317EE0003134A08031CE7
:100730004A0F9B2B9E2B0317EE02031303176B0824
:10074000F7006C08F8006D08F9006E08FA00EE1F5B
:10075000BB2B6B08003CF700F8016C08031C6C0F06
:10076000F802F9016D08031C6D0FF902FA016E0819
:10077000031C6E0FFA0278089100770890000313AB
:100780004608CA004508C9004408C8004308C70015
:10079000C201C101C001BF01DE01DD01DE08031D90
:1007A000F42B5D080B3C031CF42B03105D0DF900CA
:1007B0005E0DFA007908103E84008317840A000851
:1007C000FA0084030008BF077A0803187A0FC007ED
:1007D000003003180130C107003003180130C20790
:1007E000DD0A0319DE0ACE2BFB010C108A110A1256
:1007F0003B28C422502A481D000020102010201041
:1008000020102010201000006D0055280001442702
:1008100000015328C522441D000120102010201083
:100820002010201020102000ED17ED346E00552808
:10083000000144270001D422CE29201D00012010F0
:10084000201020102010201020100001EB33000198
:10085000CD20D225201D00012010201020102010B6
:1008600020102010201000013A003A003A00200029
:100870006D00D23077103A00C33765333A0020104C
:10088000201020100001412A6537731D000120103F
:10089000201020100001422A6537731D000120102E
:1008A000201020100001C1346E183A0020102010D2
:1008B0002000C134EE183A00201020102000C1346E
:1008C0006E193A00201020102000C134EE193A00B1
:1008D000201020102000C1346E1A3A002010201081
:1008E0002000C134EE1A3A00201020102000C1343C
:1008F0006E1B3A00201020102000C134EE1B3A007D
:100900002010201020002010201020102010201077
:100910002010201020102010201020102010201057
:100920002010201020102010201020102010000176
:100930002010201020102010201020102010201037
:100940002010201020102010201020102010201027
:100950002010201020102010000055308400831734
:1009600000080319C02C0630F800F701F70BB62C6D
:10097000F80BB52C7B30F700F70BBC2C800BB32C9D
:10098000080003175C18C82C03130812CA2C03179D
:10099000031308168316081283120317DC18D42CCD
:1009A00003138812D62C0317031388168316881294
:1009B000831203175C19E02C03130813E22C0317AE
:1009C000031308178316081383120317DC19EC2C82
:1009D00003138813EE2C0317031388178316881349
:1009E000000083120815831608110330F700F70B77
:1009F000F72C8312081183160811831208000317BD
:100A0000DD0183160313081600308312081A013023
:100A10000317DD0483160313881600308312881A27
:100A20000130F7000310F70D77080317DD04831674
:100A30000313081700308312081B0130F700F70D6D
:100A4000F70DFC30F70577080317DD048316031351
:100A5000881700308312881B0130F700F70DF70D5F
:100A6000F70DF830F70577080317DD045D08F80087
:100A70000313080083160811081088108312081049
:100A8000831608100816881608178817831288140A
:100A900083168810000083120815831608110000C1
:100AA0008312FF2478080317DC0003130811831650
:100AB0000811000083120815831608115F2D602DA0
:100AC00000008312FF2478080317DB0003130811CA
:100AD000831608110812881208138813831203174B
:100AE0005C0EF700F030F70577085B04F800780833
:100AF000DB00DB1F7E2D83160313422DD908031D57
:100B0000852D03130810872D03170313081483166C
:100B100008100000831288108316881000008312CA
:100B2000081183160811831203175A0EDB000F30C9
:100B3000DB055B08DC000313C12403175A080F39D7
:100B4000DB00DC000313C124080028300317C900B0
:100B50000C30CA000130CB000630CC000313081162
:100B60008316081183120810831608108312881048
:100B700083168810081288120813881308110810A9
:100B800088100F3083120317D5000313AD240130F2
:100B90000317C8004808033C031CDA2D0330DC00AF
:100BA0000313C12405300317D5000313AD24031725
:100BB000C80ACA2D0230DC000313C1240530031714
:100BC000D5000313AD240317C8014808033C031CD8
:100BD000F72D49304807840083170008CD00D9015C
:100BE0004D08DA0003133A250317C80AE52D03134D
:100BF0008A150A16AF28DE01DD01DE08031D182E56
:100C00005D080B3C031C182EA0305D078400831385
:100C10005E1883175D0803178D0083168C130C1460
:100C200083120C0880000313DD0A0319DE0AFD2D70
:100C300083162108F9002208F8002308F70020088D
:100C40008312CE007908CD007808CC007708CB005D
:100C5000831626088312D800831627088312D7002C
:100C6000831629088312BC00831628088312BB0050
:100C700083162B088312BE0083162A088312BD0038
:100C80008A150A16F42803174D08F8014C020318B8
:100C90004C2E4C08F700582EF7010830CE00CC0D32
:100CA000F70D4D0877020318F700F80DCE0B4F2E05
:100CB00003130800F801F901F701FA0103174F08BF
:100CC000031D652E4E0803197F2E1030D00003102F
:100CD000CC0DCD0DF70DFA0D4F087A02031D722EC3
:100CE0004E087702031C7B2E4E08F702031CFA0302
:100CF0004F08FA020314F80DF90DD00B672E0313F9
:100D00008A150A16262A8E30F70003174A08F800BB
:100D10004908F900FA01F808031D982E7908F8002F
:100D2000F9010830F702F808031D982EF701A02EEC
:100D30000310F81B9F2EF90DF80DF703982EF813EA
:100D400003130800031749080319132FD1004D0896
:100D50000319132FD1070318B42E7F30D102031CBF
:100D6000132F0319132FB82E8130D1070318132F17
:100D70005108F700F801F901FA014A08D500D51722
:100D80004B08D4004C08D3001830D100D201531CBA
:100D9000E12E5008FA07031CD32EF90A031DD32EA7
:100DA000F80A0319D2174F08F907031CDA2EF80ABC
:100DB0000319D2174E08CB00CB174B08F8070318BE
:100DC000D217D20DF80CF90CFA0CD50CD40CD30CAC
:100DD0000310D10BC62E0130F7070318132FF81B91
:100DE000F82ED50DFA0DF90DF80DF7030319132F91
:100DF000D51F092FFA0A031D092FF90A031D092F10
:100E0000F80A031D092FF80CF90CFA0CF70A03195C
:100E1000132F4A08D2004E08D206D21F112FF817FE
:100E2000172FF813172FF701F801F901FA0103132F
:100E30000800031749080319DF2FD5004D080319CF
:100E4000DF2FD502031C292F7F30D5070318DF2F92
:100E50002F2F8130D502031CDF2F0319DF2F5508F8
:100E6000F700F801F901FA01D4014A08D300D317B9
:100E70004B08D2004C08D1001930D5005008D102DF
:100E80000318522F0130D2020318522FD302031835
:100E9000522FD4020318522FD40AD30AD20A500870
:100EA000D107842F4F08D20203186D2F0130D302CF
:100EB00003186D2FD40203186D2FD40AD30A4F08DC
:100EC000D2075008D107031C842FD20A031D842F98
:100ED000D30A031D842FD40A842F4E088038D302EE
:100EE0000318832F0130D4020318832FD40A4E082D
:100EF0008038D3074F08D207031C612FD30A031D84
:100F0000612FD40A612F7A14D50B872F922F0310EB
:100F1000D10DD20DD30DD40D0310FA0DF90DF80D2E
:100F2000D60D3E2F561C9A2F0310F80CF90CFA0C14
:100F3000D60C9D2FF7030319DF2FD61BC62F0310E6
:100F4000D10DD20DD30DD40D5008D1020318B22FFC
:100F50000130D2020318B22FD3020318B22FD402E9
:100F6000031CD52F4F08D2020318BD2F0130D30226
:100F70000318BD2FD402031CD52F4E088038D3028E
:100F80000318C62F0130D402031CD52FFA0A031D03
:100F9000D52FF90A031DD52FF80A031DD52FF70AFF
:100FA0000319DF2FF80CF90CFA0C4A08D5004E088B
:100FB000D506D51FDD2FF817E32FF813E32FF70120
:100FC000F801F901FA01031308000317560BE92F82
:100FD000EC2F4030D700ED2FD70101305502D70755
:100FE00057088038D800D9015808DA0003133A2589
:020FF0000800F7
:101000008030831C06280317CD0603130317D20173
:10101000D3014908D1004D08D10648080319F52825
:10102000D000F7004C080319FE28D00203199A28B3
:1010300003181B2858284D08D600D6174E08D5008F
:101040004F08D400D3010310D60CD50CD40CD30C0C
:10105000D00B2228D11F2F285214122952105010C1
:1010600052164B308400831728295212D11B422874
:10107000501C4D28D60CD50CD40CD30CF70A0319F0
:101080000D294D28D61B50280310D30DD40DD50D96
:10109000D60DF70303190D2942285217BA28521307
:1010A0004908D100D11F5628D6170629D61306297C
:1010B0004C08D000F7004808D0024908D600D617DF
:1010C0004A08D5004B08D400D3010310D60CD50C28
:1010D000D40CD30CD00B6428D11F7128D214122940
:1010E000D2105010D2164F30840083172829D21204
:1010F000D11B8428501C8F28D60CD50CD40CD30CB3
:10110000F70A03190D298F28D61B92280310D30D37
:10111000D40DD50DD60DF70303190D298428D21748
:10112000BA28D2134D08D100D11F9828D617062906
:10113000D61306294D08D600D6174E08D5004F08FD
:10114000D400D11FA728D613521512295211D3014A
:1011500050104B30840083172829D11BD028490810
:10116000D100501CBA28D60CD50CD40CD30CF70ADD
:1011700003190D29D31FCB28D40A031DCB28D50A68
:10118000031DCB28D60A031DCB28D60CD50CD40CB6
:10119000F70A03190D29521B4F28D21B9128EF285B
:1011A0008030D606D61FD82812294D08D100E52850
:1011B0004908D100D608031DE528D508031DE528F8
:1011C000D408031DE528F7010629D61BEF280310D4
:1011D000D30DD40DD50DD60DF70BE5280D29D11F54
:1011E000F328D6170629D61306294C08F7004D0810
:1011F000D6004E08D5004F08D40006294808F7004D
:101200004908D6004A08D5004B08D4005608F80013
:101210005508F9005408FA004729F701F801F901C7
:10122000FA014729D301D409D509D609D309D30A2C
:10123000031D2129D40A031D2129D50A031D2129B3
:10124000D60A52182E28D21870285219A628D52846
:101250000008D407031C3229D50A031D3229D60AF7
:101260000319501484030008D507031C3A29D60A31
:101270000319501484030008801B3F29803AD607C5
:1012800003185014521A3528D21A7728AD280313A0
:101290008A150A16C52A0B08F7008B1307300317A7
:1012A0008D000313570803178C0083168C130C153D
:1012B00055308D00AA308D008C148C185D290C11CE
:1012C0007708831203138B0458080317C800C90159
:1012D00003130B08F7008B13063003178D00480823
:1012E0008C0083168C130C1555308D00AA308D00A0
:1012F0008C148C1879290C117708831203138B0432
:101300000317C801C90103130B08F7008B1305303D
:1013100003178D0048088C0083168C130C1555306C
:101320008D00AA308D008C148C1894290C1177082C
:10133000831203138B040317C801C90103130B089D
:10134000F7008B13043003178D0048088C008316B8
:101350008C130C1555308D00AA308D008C148C1810
:10136000AF290C117708831203138B048A150A1610
:10137000F02A0B08F7008B13033003178D000313BB
:101380004B0803178C0083168C130C1555308D00F9
:10139000AA308D008C148C18CB290C11770883127D
:1013A00003138B044C080317C90003134D080317DC
:1013B000CA0003134E080317CB00CC0103130B081C
:1013C000F7008B13023003178D0049088C00831639
:1013D0008C130C1555308D00AA308D008C148C1890
:1013E000EF290C117708831203138B044D080317A0
:1013F000C90003134E080317CA00CB01CC01031325
:101400000B08F7008B13013003178D0049088C007F
:1014100083168C130C1555308D00AA308D008C145A
:101420008C18102A0C117708831203138B044E08B2
:101430000317C900CA01CB01CC0103130B08F70045
:101440008B1303178D0149088C0083168C130C1520
:1014500055308D00AA308D008C148C182D2A0C115B
:101460007708831203138B0408000B08F7008B1313
:10147000083003178D0003133B0803178C008316F5
:101480008C130C1555308D00AA308D008C148C18DF
:10149000472A0C117708831203138B043C080317A7
:1014A000C800C90103130B08F7008B130930031799
:1014B0008D0048088C0083168C130C1555308D0058
:1014C000AA308D008C148C18632A0C1177088312B3
:1014D00003138B040B08F7008B130A3003178D00DE
:1014E00003133D0803178C0083168C130C1555301D
:1014F0008D00AA308D008C148C187C2A0C11770872
:10150000831203138B043E080317C800C901031399
:101510000B08F7008B130B3003178D0048088C0065
:1015200083168C130C1555308D00AA308D008C1449
:101530008C18982A0C117708831203138B048A15D0
:101540000A16322B0830F8000317CA014908F700C1
:101550007708CA06F70CF80BA82A03130C1EAE2A4C
:10156000FE3083169805831203174A1CBC2A831683
:101570000313181483120317490803139900080072
:10158000DE01DD01DE08031DD92A5D082F3C031CA6
:10159000D92AB4305D07840083135E1883170008CE
:1015A0000317C800C9000313A222DD0A0319DE0ACB
:1015B000C22AAA300317C9000313A222AA300317B4
:1015C000C9000313A2228A150A16802B0317540898
:1015D000073A03130319F62A0B3A0319FF2A063AAE
:1015E00003190F2B023A0319192B222B0130031771
:1015F000D500D6008A110313E5278A152B2B031774
:10160000D9010130DA008A1103133A258A15023014
:101610000317D5008A110313AD248A152B2B013033
:101620000317D5000230D6008A110313E5278A1567
:101630002B2B0317D9011030DA008A1103133A2536
:101640008A152B2B01300317D9005408DA008A11B0
:1016500003133A258A1508000B080317C900031362
:101660008B13831603178C170C14000000008312D1
:10167000C91F3D2B03138B1703170C087F39031960
:101680007A2BC9000D08CA000F08CB004908D40006
:101690000313E62203174A088D004B088F0003133B
:1016A0000B080317CC0003138B13831603178C1737
:1016B0000C14000000008312CC1F612B03138B1746
:1016C00003170C0D0E0D7F3903197A2BC9000D0875
:1016D000CA000F08CB004908D4000313E622031701
:1016E0004A088D004B088F008D0A03198F0A0313D7
:1016F0002C2B031703130800B630F700FA01F90189
:10170000F801031749084A044B044C04031D8A2BB3
:10171000F701972B0310F81B962BC90DCA0DCB0DA3
:10172000CC0DFA0DF90DF80DF70B8A2BF8130313F6
:10173000080003174908B63CC900FA014A08CD0061
:10174000CA170310CA0CCB0CCC0CFA0CF90CF80C11
:10175000F70CC90BA12BCD1FB82BF709F809F90914
:10176000FA09F70A0319F80A0319F90A0319FA0A18
:10177000031308008318BF2B663084008317F7011A
:10178000F801F901FA010317E601E701E801E901AF
:1017900065086404630462040319FE2B2030EA0028
:1017A0000310DE0DDF0DE00DE10DE60DE70DE80D98
:1017B000E90D65086902031DE72B64086802031D33
:1017C000E72B63086702031DE72B62086602031C10
:1017D000F82B6208E6026308031C630FE702640843
:1017E000031C640FE8026508031C650FE90203147B
:1017F000F70DF80DF90DFA0DEA0BD02B66088000F5
:10180000840A67088000840A68088000840A6908DE
:10181000800003130800831003175508E1005408E3
:10182000E0005308DF005208DE003B30E5009A304C
:10183000E400CA30E300E2010313BA237A08031775
:10184000D9007908D8007808D7007708D60056085C
:101850000313BA0083145A30840083170317550802
:10186000E1005408E0005308DF005208DE003B307E
:10187000E5009A30E400CA30E300E2010313BA2322
:1018800003175D08D9005C08D8005B08D7005A0828
:10189000D60083105908E1005808E0005708DF001F
:1018A0005608DE000530E500F530E400E130E300E5
:1018B000E2010313BA237A080317D9007908D80084
:1018C0007808D7007708D60056080313B9008314A8
:1018D0005A308400831703175508E1005408E000CC
:1018E0005308DF005208DE000530E500F530E40063
:1018F000E130E300E2010313BA2303175D08D900C6
:101900005C08D8005B08D7005A08D6008310590835
:10191000E1005808E0005708DF005608DE00E50146
:101920009830E4009630E3008030E2000313BA23DD
:101930007A080317D9007908D8007808D700770803
:10194000D60056080313B80083145A308400831756
:1019500003175508E1005408E0005308DF0052085F
:10196000DE00E5019830E4009630E3008030E200CC
:101970000313BA2303175D08D9005C08D8005B087D
:10198000D7005A08D60083105908E1005808E00033
:101990005708DF005608DE00E5010F30E400423052
:1019A000E3004030E2000313BA237A080317D9009A
:1019B0007908D8007808D7007708D60056080313AE
:1019C000B70083145A308400831703175508E100C9
:1019D0005408E0005308DF005208DE00E5010F3034
:1019E000E4004230E3004030E2000313BA2303175F
:1019F0005D08D9005C08D8005B08D7005A08D600FB
:101A000083105908E1005808E0005708DF00560825
:101A1000DE00E5010130E4008630E300A030E200A2
:101A20000313BA237A080317D9007908D800780875
:101A3000D7007708D60056080313B60083145A302F
:101A40008400831703175508E1005408E000530889
:101A5000DF005208DE00E5010130E4008630E300DB
:101A6000A030E2000313BA2303175D08D9005C0815
:101A7000D8005B08D7005A08D60083105908E10047
:101A80005808E0005708DF005608DE00E501E401D1
:101A90002730E3001030E2000313BA237A0803175B
:101AA000D9007908D8007808D7007708D6005608FA
:101AB0000313B50083145A308400831703175508A5
:101AC000E1005408E0005308DF005208DE00E501A1
:101AD000E4012730E3001030E2000313BA230317B8
:101AE0005D08D9005C08D8005B08D7005A08D6000A
:101AF00083105908E1005808E0005708DF00560835
:101B0000DE00E501E4010330E300E830E200031306
:101B1000BA237A080317D9007908D8007808D700C3
:101B20007708D60056080313B40083145A30840093
:101B3000831703175508E1005408E0005308DF003D
:101B40005208DE00E501E4010330E300E830E20082
:101B50000313BA2303175D08D9005C08D8005B089B
:101B6000D7005A08D60083105908E1005808E00051
:101B70005708DF005608DE00E501E401E3016430A8
:101B8000E2000313BA237A080317D9007908D800B2
:101B90007808D7007708D60056080313B3008314DB
:101BA0005A308400831703175508E1005408E000F9
:101BB0005308DF005208DE00E501E401E301643070
:101BC000E2000313BA2303175D08D9005C08D800AC
:101BD0005B08D7005A08D60083105908E10058085E
:101BE000E0005708DF005608DE00E501E401E301EC
:101BF0000A30E2000313BA237A080317D9007908E0
:101C0000D8007808D7007708D60056080313B2002A
:101C100083145A308400831703175508E1005408D1
:101C2000E0005308DF005208DE00E501E401E301B3
:101C30000A30E2000313BA2303175A080313B10052
:101C4000080003175008D5004F08D4004E08D300F1
:101C50004D08D20003130B2403175108D2000313BD
:101C6000B70803193A2E303037070317D300D400D2
:101C70000313E622B608031D3F2E0030402E01302C
:101C80000317D3000313B708031D482E0030492E55
:101C90000130031753040319562E3030031336074F
:101CA0000317D300D4000313E62203170313B60867
:101CB000031D5C2E00305D2E01300317D30003138B
:101CC000B508031D652E0030662E01300317D304BE
:101CD0000313B708031D6E2E00306F2E013003175B
:101CE000530403197C2E3030031335070317D30038
:101CF000D4000313E62203170313B608031D822E34
:101D00000030832E01300317D3000313B508031DE1
:101D10008B2E00308C2E01300317D3040313B70829
:101D2000031D942E0030952E01300317D3040313A6
:101D3000B408031D9D2E00309E2E01300317D304DE
:101D40005208033C0319A62E0030A72E013053047D
:101D50000319BC2E3030031334070317D300D4000B
:101D60000313E62203175208033C031DBC2E2E303A
:101D7000D4000313E62203170313B608031DC22E73
:101D80000030C32E01300317D3000313B508031D21
:101D9000CB2E0030CC2E01300317D3040313B70829
:101DA000031DD42E0030D52E01300317D3040313A6
:101DB000B408031DDD2E0030DE2E01300317D304DE
:101DC0000313B308031DE62E0030E72E013003177E
:101DD000D3045208023C0319EF2E0030F02E0130DC
:101DE00053040319052F3030031333070317D300AF
:101DF000D4000313E62203175208023C031D052FEB
:101E00002E30D4000313E62203170313B408031D76
:101E10000B2F00300C2F01300317D3000313B3082E
:101E2000031D142F0030152F01300317D3040313A3
:101E3000B208031D1D2F00301E2F01300317D304DD
:101E4000520B232F252F0030262F01305304031966
:101E5000392F3030031332070317D300D400031394
:101E6000E6220317520B392F2E30D4000313E6223B
:101E700003173030031331070317D300D4000313C3
:101E8000E622080003174908CA004B08CC0064305A
:101E9000CD008A11031343268A1578080317CB0057
:101EA0004B080313B30003174A08CC006430CD007D
:101EB0008A11031343268A1577080317CB004B08B2
:101EC000CC000A30CD008A11031343268A15780806
:101ED0000317CB004B080313B20003174A08CC00CA
:101EE0000A30CD008A11031343268A157708B10002
:101EF000B3080319822F303033070317CA00D40008
:101F00000313E622B208031D872F0030882F01300B
:101F10000317CA000313B308031D902F0030912F3D
:101F2000013003174A0403199E2F30300313320780
:101F30000317CA00D4000313E6220317303003133B
:101F400031070317CA00D4000313E6220800031761
:101F50004A08D1004E08D106D11FB32F0311031038
:101F6000CA1B0314E62F4A08D1004D08D2004908C5
:101F7000D2020319C12FD11FE62F0308013A8300B3
:101F8000E62F4E08D2004A08D2020319CD2FD11FE6
:101F9000E62F0308013A8300E62F4F08D2004B08D2
:101FA000D2020319D92FD11FE62F0308013A83006B
:101FB000E62F5008D2004C08D2020319E52FD11F9A
:101FC000E62F0308013A8300E62F031003130800ED
:102000000317C808031D472B0130D500D6000A125C
:102010000313E5270A16F93003178D0003308F00EC
:102020000A128A1503132C230A168A11FD3003178E
:102030008D0003308F000A128A1503132C230A1611
:102040008A1107300317D5000130D6000A12031396
:10205000E5270A16CE1B2D2836282D300317D4006D
:102060000A128A150313E6220A168A114B08F70092
:102070004C08F8004D08F9004E08FA00CE1F52280F
:102080004B08003CF700F8014C08031C4C0FF80209
:10209000F9014D08031C4D0FF902FA014E08031C0B
:1020A0004E0FFA027A080317CC007908CB007808A3
:1020B000CA007708C9000A128A1503137C230A167E
:1020C0008A117A080317AB007908AA007808A900DA
:1020D0007708A8002B08CC002A08CB002908CA00E2
:1020E0002808C900D001CF014830CE008530CD008E
:1020F0000A120313A2260A167A080317AB007908FE
:10210000AA007808A9007708A80003135808031745
:10211000CA00031357080317C9000A1203138326C2
:102120000A1603172B08CC002A08CB002908CA007E
:102130002808C9007A08D0007908CF007808CE00B6
:102140007708CD000A12031319270A167A08031715
:10215000AB007908AA007808A9007708A8002B0826
:10216000CC002A08CB002908CA002808C9000A1296
:102170008A15031399230A168A117A080317CC00CB
:102180007908CB007808CA007708C9004C08D0004D
:102190004B08CF004A08CE004908CD000130D100DD
:1021A0000A128A15031321260A168A11043003170E
:1021B0008D0004308F000A128A1503132C230A168F
:1021C0008A1111300317D5000130D6000A1203130B
:1021D000E5270A16071CF828053003178D00043080
:1021E0008F000A128A1503132C230A168A11032959
:1021F000073003178D0004308F000A128A1503136D
:102200002C230A168A1101300317D5000230D6009C
:102210000A120313E5270A16093003178D0004304C
:102220008F000A128A1503132C230A168A110D3007
:1022300003178D0004308F000A128A1503132C2314
:102240000A168A1107300317D5000230D6000A1289
:102250000313E5270A1642080317CC0003134108AD
:102260000317CB00031340080317CA0003133F08EA
:102270000317C9000A128A1503137C230A168A1150
:102280007A080317AF007908AE007808AD00770828
:10229000AC002F08CC002E08CB002D08CA002C085B
:1022A000C900D001CF017A30CE008830CD000A12AB
:1022B0000313A2260A167A080317AF007908AE00A6
:1022C0007808AD007708AC00031358080317CA005C
:1022D000031357080317C9000A12031383260A16AB
:1022E00003172F08CC002E08CB002D08CA002C089D
:1022F000C9007A08D0007908CF007808CE007708A6
:10230000CD000A12031319270A167A080317AF0023
:102310007908AE007808AD007708AC002F08CC0033
:102320002E08CB002D08CA002C08C9000A128A15F5
:10233000031399230A168A117A080317CC00790827
:10234000CB007808CA007708C9004C08D0004B08B9
:10235000CF004A08CE004908CD000130D1000A1252
:102360008A15031321260A168A11143003178D00CB
:1023700004308F000A128A1503132C230A168A11BF
:1023800011300317D5000230D6000A120313E527D7
:102390000A168316671FDA291730831203178D0078
:1023A00004308F000A128A1503132C230A168A118F
:1023B000E62983161930831203178D0004308F002D
:1023C0000A128A1503132C230A168A1115300317D3
:1023D000D5000130D6000A120313E5270A161B3078
:1023E00003178D0004308F000A128A1503132C2363
:1023F0000A168A111F3003178D0004308F000A124D
:102400008A1503132C230A168A111B300317D500D3
:102410000130D6000A120313E5270A160317330802
:10242000CC003208CB003108CA003008C9000A12BB
:102430008A15031399230A168A117A080317CC0008
:102440007908CB007808CA007708C9004C08D0008A
:102450004B08CF004A08CE004908CD00D1010A122E
:102460008A15031321260A168A11263003178D00B8
:1024700004308F000A128A1503132C230A168A11BE
:1024800025300317D5000130D6000A120313E527C3
:102490000A1683166C0883120317C9000A128A15DC
:1024A000031342270A168A1120300317D4000A1298
:1024B0008A150313E6220A168A115C08013C0318E8
:1024C000722AFF3A031D682A5B08143C0318722A1B
:1024D0002A300317D4000A128A150313E6220A16BB
:1024E0008A117B2A20300317D4000A128A1503139D
:1024F000E6220A168A1115300317D5000230D600DD
:102500000A120313E5270A16283003178D0004303A
:102510008F000A128A1503132C230A168A112C30F5
:1025200003178D0004308F000A128A1503132C2321
:102530000A168A111B300317D5000230D6000A1282
:102540000313E5270A1683166B0883120317C900C5
:102550000A128A15031342270A168A113430031708
:102560008D0004308F000A128A1503132C230A16DB
:102570008A1183166A0883120317C9000A128A1582
:10258000031342270A168A11353003178D000430D1
:102590008F000A128A1503132C230A168A11831638
:1025A000690883120317C9000A128A150313422708
:1025B0000A168A11363003178D0004308F000A1274
:1025C0008A1503132C230A168A11831668088312AE
:1025D0000317C9000A128A15031342270A168A1123
:1025E000373003178D0004308F000A128A15031349
:1025F0002C230A168A1103173708CC003608CB00A3
:102600003508CA003408C900D001CF017A30CE00A5
:102610008830CD000A128A150313A7270A168A11DB
:10262000031C3A2B03173708CC003608CB003508BB
:10263000CA003408C9000A128A15031399230A161E
:102640008A117A080317CC007908CB007808CA00F1
:102650007708C9004C08D0004B08CF004A08CE00CC
:102660004908CD000130D1000A128A150313212632
:102670000A168A11383003178D0004308F000A12B1
:102680008A1503132C230A168A112D2E0317480BC3
:102690007B2C0130D500D6000A120313E5270A1659
:1026A000393003178D0004308F000A128A15031386
:1026B0002C230A168A1146080317CC000313450879
:1026C0000317CB00031344080317CA00031343087E
:1026D0000317C9004C08D5004B08D4004A08D300A2
:1026E0004908D2000A128A1503130B240A168A110C
:1026F00030303A070317CD00D4000A128A150313AD
:10270000E6220A168A11303039070317CD00D400AB
:102710000A128A150313E6220A168A113030380786
:102720000317CD00D4000A128A150313E6220A16F5
:102730008A11303037070317CD00D4000A128A15EA
:102740000313E6220A168A11303036070317CD002C
:10275000D4000A128A150313E6220A168A113030B1
:1027600035070317CD00D4000A128A150313E62299
:102770000A168A11303034070317CD00D4000A122C
:102780008A150313E6220A168A113030330703171D
:10279000CD00D4000A128A150313E6220A168A1104
:1027A000303032070317CD00D4000A128A15031304
:1027B000E6220A168A11303031070317CD00D40003
:1027C0000A128A150313E6220A168A11013003172A
:1027D000D5000230D6000A120313E5270A163C3052
:1027E00003178D0004308F000A128A1503132C235F
:1027F0000A168A110317D001CF01031358080317D3
:10280000CE00031357080317CD00D1010A128A1511
:10281000031321260A168A113F3003178D00043056
:102820008F000A128A1503132C230A168A111530F9
:102830000317D5000130D6000A120313E5270A1644
:10284000433003178D0004308F000A128A150313DA
:102850002C230A168A110317D001CF0103133C0859
:102860000317CE0003133B080317CD00D1010A1252
:102870008A15031321260A168A11473003178D0083
:1028800004308F000A128A1503132C230A168A11AA
:1028900015300317D5000230D6000A120313E527BE
:1028A0000A164B3003178D0004308F000A128A1568
:1028B00003132C230A168A110317D001CF01031327
:1028C0003E080317CE0003133D080317CD00D101C6
:1028D0000A128A15031321260A168A114F3003178C
:1028E0008D0004308F000A128A1503132C230A1658
:1028F0008A112D2E03174808023C031D2E2E01308D
:10290000D500D6000A120313E5270A165330031721
:102910008D0004308F000A128A1503132C230A1627
:102920008A11563003178D0004308F000A128A1561
:1029300003132C230A168A1106300317D500013021
:10294000D6000A120313E5270A160317D001CF0198
:102950003908CE003808CD00D1010A128A150313B8
:1029600021260A168A110B300317D5000130D60034
:102970000A120313E5270A16593003178D00043095
:102980008F000A128A1503132C230A168A115C3051
:1029900003178D0004308F000A128A1503132C23AD
:1029A0000A168A1110300317D5000130D6000A121A
:1029B0000313E5270A160317D001CF013B08CE0009
:1029C0003A08CD00D1010A128A15031321260A16EE
:1029D0008A1101300317D5000230D6000A12031302
:1029E000E5270A165F3003178D0004308F000A12A6
:1029F0008A1503132C230A168A11623003178D00DF
:102A000004308F000A128A1503132C230A168A1128
:102A100006300317D5000230D6000A120313E5274B
:102A20000A160317D001CF013D08CE003C08CD00A7
:102A3000D1010A128A15031321260A168A110B30B6
:102A40000317D5000230D6000A120313E5270A1631
:102A5000653003178D0004308F000A128A150313A6
:102A60002C230A168A11683003178D0004308F005A
:102A70000A128A1503132C230A168A111030031721
:102A8000D5000230D6000A120313E5270A160317F1
:102A9000D001CF013F08CE003E08CD00D1010A127F
:102AA0008A15031321260A168A1115300317D5003B
:102AB0000130D6000A120313E5270A166B300317FC
:102AC0008D0004308F000A128A1503132C230A1676
:102AD0008A116E3003178D0004308F000A128A1598
:102AE00003132C230A168A111A300317D50001305C
:102AF000D6000A120313E5270A160317D001CF01E7
:102B00004108CE004008CD00D1010A128A150313F6
:102B100021260A168A111F300317D5000130D6006E
:102B20000A120313E5270A16713003178D000430CB
:102B30008F000A128A1503132C230A168A11743087
:102B400003178D0004308F000A128A1503132C23FB
:102B50000A168A1124300317D5000130D6000A1254
:102B60000313E5270A160317D001CF014308CE004F
:102B70004208CD00D1010A128A15031321260A1634
:102B80008A1115300317D5000230D6000A1203133C
:102B9000E5270A16773003178D0004308F000A12DC
:102BA0008A1503132C230A168A117A3003178D0015
:102BB00004308F000A128A1503132C230A168A1177
:102BC0001A300317D5000230D6000A120313E52786
:102BD0000A160317D001CF014508CE004408CD00E6
:102BE000D1010A128A15031321260A168A111F30F1
:102BF0000317D5000230D6000A120313E5270A1680
:102C00007D3003178D0004308F000A128A150313DC
:102C10002C230A168A11803003178D0004308F0090
:102C20000A128A1503132C230A168A11243003175B
:102C3000D5000230D6000A120313E5270A1603173F
:102C4000D001CF014708CE004608CD00D1010A12BD
:102C50008A15031321260A168A1103170313080085
:102C6000B630F700FA01F901F80103174C10CB1F39
:102C7000472E4C14C809C909CA09CB09C80A031D43
:102C8000472EC90A031D472ECA0A0319CB0A480852
:102C900049044A044B04031D4F2EF7015E2E031016
:102CA000F81B5B2EC80DC90DCA0DCB0DFA0DF90D21
:102CB000F80DF70B4F2EF8134C18F81703138A155D
:102CC0000A16672CCE1F692E01308316B4006B2EB6
:102CD00083128316B401831203172B08CC002A0831
:102CE000CB002908CA002808C9000A128A15031354
:102CF00099230A168A117A080317CB007908CA00AB
:102D00007808C9007708C8004B08D5004A08D400E5
:102D10004908D3004808D2000A128A1503130B246D
:102D20000A168A1131088316B500831232088316F9
:102D3000B600831233088316B70083123408831653
:102D4000B800831235088316B9008312360883163B
:102D5000BA00831203173308CC003208CB003108C5
:102D6000CA003008C9000A128A15031399230A16EB
:102D70008A117A080317CB007908CA007808C900BD
:102D80007708C8004B08D5004A08D4004908D3008A
:102D90004808D2000A128A1503130B240A168A1156
:102DA00031088316BB00831232088316BC008312DD
:102DB00033088316BD00831234088316BE008312C5
:102DC00035088316BF00831203172F08CC002E0886
:102DD000CB002D08CA002C08C9000A128A1503135B
:102DE00099230A168A117A080317CB007908CA00BA
:102DF0007808C9007708C8004B08D5004A08D400F5
:102E00004908D3004808D2000A128A1503130B247C
:102E10000A168A1131088316C000831232088316FD
:102E2000C100831233088316C2008312340883164C
:102E3000C30083124B088316C40083124C08831608
:102E4000C50083124D088316C60083124E088316F0
:102E5000C70083120317380883160313C8008312B0
:102E60000317390883160313C900831203173A089E
:102E700083160313CA00831203173B088316031338
:102E8000CB00831203173C0883160313CC00831274
:102E900003173D0883160313CD00831203173E0862
:102EA00083160313CE00831203173F088316031300
:102EB000CF0083120317400883160313D000831238
:102EC0000317410883160313D10083120317420826
:102ED00083160313D20083120317430883160313C8
:102EE000D30083120317440883160313D4008312FC
:102EF0000317450883160313D500831203174608EA
:102F000083160313D600831203174708831603138F
:102F1000D700831259088316DC0083125A088316DF
:0A2F2000DD0083128A150A16102E38
:1030000003081F3983008316031787152A3003131B
:10301000990000309A00E6309800D0308312980072
:10302000AC01AD01AF01B0010330BC00E830BB0022
:10303000BE01BD01C601C501C401C301CE01CD0160
:10304000CC01CB01D201D101D001CF01D601D501F4
:10305000D401D3014C30D800EA30D700DA01D901CD
:10306000E601E501E801E701FB01FC01FD01831632
:10307000E401E501E6016710E7146711E711671243
:10308000E7126717E801E901EA01EB010A30EC00F9
:10309000EE01ED01FF30EF0003170908C039890088
:1030A00003131F129F120030031788008312870139
:1030B0008801890183139001910192019301940188
:1030C000950196019701980199019A019B019C0134
:1030D0009D019E019F01A001A101A201A301A401E4
:1030E000A501A601A701FF308316031385001F3039
:1030F00086009D308700EF000030880083120B1699
:1031000083168C1683128B1683160C14C030831210
:103110008B041F179F1783169F1783121F14831684
:1031200003170908C0391F38890003131F129F12A3
:10313000FF300317880003130108C03930388100BD
:103140003530831290008E010B308F00DB308E0003
:103150000000FF30810010140A128A11A52D0A16F2
:103160008A15AC018316E718B828831286128316D5
:10317000E71CBD28831286168316E718C22883121F
:1031800087108316E71CC728831287148316E71855
:10319000CC28831206138316E71CD1288312061746
:1031A00083166719D628831286138316671DDB28BA
:1031B0008312861783168312CE01CD01CC01CB0179
:1031C0008316E8011130831203178D0083168C13C8
:1031D0000C1483120C080313AE002E08023C031DCE
:1031E000F7280A128A11FB2D0A168A15FB28CE0130
:1031F000CD01CC01CB010317C708031D03294608E5
:103200000A3C03184A290313AB018B1BAB178B1322
:103210008316690883120317EB00831603136C08E7
:1032200083120317EC000A128A11031370220A1684
:103230008A15AB1B8B17831668087807E9001930CD
:10324000EC00690883120317CC00831603136C0883
:1032500083120317CD000A128A11031343260A169C
:103260008A1577088316E800690883120317CC00D3
:10327000831603136C0883120317CD000A128A11F8
:10328000031343260A168A1578088316E9008E2947
:10329000831203170313AB018B1BAB178B1383161E
:1032A000690883120317EB00831603136C0883125B
:1032B0000317EC000A128A11031370220A168A15EA
:1032C000AB1B8B17831668087807E9000A30EC00FF
:1032D000690883120317CC00831603136C0883124A
:1032E0000317CD000A128A11031343260A168A1502
:1032F00077088316E800690883120317CC00831649
:1033000003136C0883120317CD000A128A110313EA
:1033100043260A168A1578088316E90083120317D4
:10332000C508031D972944080A3C03189D298316E4
:1033300003136717A0298312031783160313671358
:103340008312DE01DD01DE08031DBB295D08073C99
:10335000031CBB2903105D0DF9005E0DFA0079080E
:10336000383E84008317840A800184038001DD0ACB
:103370000319DE0AA329E801E701E808031D062A6C
:103380006708313C031C062ADE01DD01DE08031D4F
:10339000022A5D08073C031C022A5D0DF7005E0D42
:1033A000F800F70DF80DFC30F7051F08C339770456
:1033B0009F001030F700F70BDB29000003105D0DB4
:1033C000F9005E0DFA007908383E840083179F14D7
:1033D0009F18E8291E08F90083167908FA001E08CC
:1033E0000007840AF80000080318000FFA07840396
:1033F00078088000840A7A0880008312DD0A0319A5
:10340000DE0AC629E70A0319E80ABD29DE01DD0143
:10341000DE08031D312A5D08073C031C312A031016
:103420005D0DF9005E0DFA007908383E84008317BF
:10343000840A00080317CD0084030008CC00CF01E4
:103440003230CE000A128A1103135A2E0A168A1538
:1034500078088000840A79088000DD0A0319DE0AF2
:10346000082A031739080313E00003173808031369
:10347000DF0003173B080313DC0003173A080313AC
:10348000DB0060080317CA0003135F080317C900B5
:103490000A128A11031383260A168A157A0803175B
:1034A000B3007908B2007808B1007708B0000313C0
:1034B0003C080317CA0003133B080317C9000A128C
:1034C0008A11031383260A168A1503173308CC00C2
:1034D0003208CB003108CA003008C9007A08D00091
:1034E0007908CF007808CE007708CD000A128A113B
:1034F0000313A2260A168A157A080317B30079085F
:10350000B2007808B1007708B0003308CC00320868
:10351000CB003108CA003008C900D001CF017A3091
:10352000CE008830CD000A128A11031319270A161B
:103530008A157A080317B3007908B2007808B10039
:103540007708B00003133E080317CA0003133D08B1
:103550000317C9000A128A11031383260A168A1553
:10356000831003173308CB003208CA003108C900A2
:103570003008C8007A08CF007908CE007808CD005E
:103580007708CC000A12031300280A167A080317DA
:10359000B3007908B2007808B1007708B00083164C
:1035A00003136608033C031DF32AE60183120B088C
:1035B000F7008B13113003178D0002308C00831637
:1035C0008C130C1555308D00AA308D008C148C187E
:1035D000E72A0C117708831203138B040A124B2974
:1035E0000A168B2B8316660B132BE60183120B082E
:1035F000F7008B13113003178D0002308C008316F7
:103600008C130C1555308D00AA308D008C148C183D
:10361000072B0C117708831203138B040A12B921AC
:103620000A168B2B83166608043C031D352BE60116
:1036300083120B08F7008B13113003178D00023033
:103640008C0083168C130C1555308D00AA308D001C
:103650008C148C18292B0C117708831203138B04FC
:103660000A12352A0A168B2B83166608023C031DA4
:103670008C2BE60167193F2B831287128316671D77
:10368000442B831287168316043083120317D50048
:103690000A128A110313AD240A168A158316E71835
:1036A000542B831287128316E71C592B831287161B
:1036B000831674088312C6007308C5007208C4001C
:1036C0007108C3007608DA007508D9005908F700B8
:1036D0005A08F800F901FA01DA1F702BF903FA030E
:1036E0007708CB0778080318780FCC0779080318F8
:1036F000790FCD077A0803187A0FCE070A12C02A6D
:103700000A168316E50183122C080317C8008A11D4
:10371000031300208A15831683123008023C031815
:10372000A52BB001E608031D992B6508143C03186E
:103730009E2B02308316E600A62B83122C0803175B
:10374000C8008A11031300208A158316E71EF82C7F
:10375000E7126719AE2B831287128316671DB32BEE
:10376000831287168316043083120317D5000A12BA
:103770008A110313AD240A168A158316E718C32B82
:10378000831287128316E71CC82B831287168316B1
:1037900074088312C6007308C5007208C40071085B
:1037A000C3007608DA007508D9005908F7005A08EE
:1037B000F800F901FA01DA1FDF2BF903FA037708A1
:1037C000CB0778080318780FCC0779080318790F0E
:1037D000CD077A0803187A0FCE0753084302031760
:1037E000C800031344080317C90003135408031C3B
:1037F000540FFB2BFE2B0317C902031345080317B5
:10380000CA0003135508031C550F072C0A2C031775
:10381000CA02031346080317CB0003135608031C00
:10382000560F132C162C0317CB020313031748084B
:10383000F7004908F8004A08F9004B08FA00CB1FC6
:10384000332C4808003CF700F8014908031C490FD5
:10385000F802F9014A08031C4A0FF902FA014B0861
:10386000031C4B0FFA027A080313D2007908D10027
:103870007808D0007708CF004608D6004508D50064
:103880004408D4004308D30043088316D8008312A9
:1038900044088316D900831245088316DA00831280
:1038A00046088316DB00E501831252080317CB009C
:1038B000031351080317CA00031350080317C90064
:1038C00003134F080317C8008A110313302E8A15FB
:1038D0007A080317B7007908B6007808B5007708AA
:1038E000B4003708CC003608CB003508CA003408CD
:1038F000C900D001CF014830CE008530CD000A127A
:103900008A110313A2260A168A157A080317B7002C
:103910007908B6007808B5007708B4000313580892
:103920000317CA00031357080317C9000A128A11A4
:10393000031383260A168A1503173708CC003608A6
:10394000CB003508CA003408C9007A08D0007908CD
:10395000CF007808CE007708CD000A128A11031331
:1039600019270A168A157A080317B7007908B600CE
:103970007808B5007708B40083160313671EF82C87
:10398000671283120317CC01CB01CA018130C90031
:103990003708D0003608CF003508CE003408CD00F7
:1039A0000A120313A7270A16031CF92C8316E80131
:1039B000E903690FEF2CEA03633083120317CC008D
:1039C000831603136C0883120317CD000A128A11A1
:1039D000031343260A168A1578088316E9006A0F2E
:1039E000F42CEB030430EA006B0FF82C1330EB00DF
:1039F00083128316E71D0A2D83122F08043C031C33
:103A0000032D83160A2D8316E7118312AF018B1045
:103A10000B1683168312861A222D05300317D50044
:103A20000A128A110313AD240A168A158316E718A1
:103A30001C2D831286128316E71C212D83128616F5
:103A400083168312E10A0319E20AE208031D2C2DF2
:103A50006108323C0318312DE201E1018316671041
:103A6000831283166718E12D831286196A2DAC0A1A
:103A70002C08023C03183D2DAC0101300317D50082
:103A8000D6000A128A110313E5270A168A15833015
:103A900003178D0004308F000A1203132C230A161B
:103AA00001300317D5000230D6000A128A11031321
:103AB000E5270A168A15983003178D0004308F0009
:103AC0000A1203132C230A16E201E101831667147C
:103AD000E12D8312061A762DCE01CD01CC01CB014A
:103AE000E201E10183166714E12D831286189F2DF0
:103AF000831667197E2D831286128316671D832D08
:103B0000831286168316023083120317D5000A1219
:103B10008A110313AD240A168A158316E718932D0C
:103B2000831286128316E71C982D8312861683163D
:103B30008312E201E10183166714E12D8312061955
:103B4000E22D8316E801E901EA01EB018312AC01E1
:103B500083166719AE2D831286128316671DB32D47
:103B6000831286168316023083120317D5000A12B9
:103B70008A110313AD240A168A158316E718C32D7C
:103B8000831286128316E71CC82D831286168316AD
:103B90008312E201E10183166714E718D22D831224
:103BA00006138316E71CD72D831206178316671991
:103BB000DC2D831286138316671DE12D8312861771
:103BC00083168312E30A0319E40A6408003C03180D
:103BD0000E2EFF3A031DF02D6308F33C03180E2E42
:103BE0000A12B9210A16E401E301003088190130F4
:103BF0000317C900003083160313E718013083123E
:103C000003174906F8007818082E031388110317C4
:103C1000781C0D2E03138815031703138A11622EC7
:063C20008A15FB28630079
:04400E00E22FFF3F5F
:00000001FF
;PIC16F887
;CRC=4568  CREATED="19-Mar-24 16:21"
